:10012200E4F5B1F5B2F5B3F5B4F5ACF5AD75270864
:1001320075440375394E75433F75360E7537017533
:10014200210343F31043F30143F30243F40853F34F
:100152007F53F3DF53F3F753F3FB53F47F43F3403F
:10016200C2917F0AFEFDFC12056612091F12093AAE
:1001720012096F12097F12088D1208C97F01120637
:10018200CD7B007A0079311202C07F927E0912087B
:1001920013E4FF1207017F15120423120904120748
:1001A2008E1207BB1207611207341208337F147EC6
:1001B200007D007C0012056643E90143E91043EA31
:1001C2000453EBFBE4F5ECD2AFD2917F01FEFDFCD0
:1001D2001205667F807E257D007C001206947FE8F2
:1001E2007E037D007C001205660551AF5112095550
:1001F2007F037E007D007C001205667F071208E700
:10020200E53830E5F612096F12088DAF51120997E1
:0202120080CC9E
:1007E8000531010203040505220102030405052859
:1007F80012ED679C46032EF63F5D063D4521EF2C22
:0A0808005A40012D01033A0BDF02F4
:1008E700C2958FF5E5F430E7FB53F47F75F555E5D1
:0D08F700F430E7FB53F47F85F538D29522ED
:10095500C29575F5A0E5F430E7FB53F47F8FF5E517
:0A096500F430E7FB53F47FD2952233
:10096F00C29575F5E1E5F430E7FB53F47FD295229C
:10097F00C29575F5E2E5F430E7FB53F47FD295228B
:100833007527D2C29575F520E5F430E7FB53F47FB5
:0E0843008527F5E5F430E7FB53F47FD29522CC
:1006CD00EF24FE600C14600E2402700D7544018041
:1006DD00087544028003754403C29575F523E5F44E
:1006ED0030E7FB53F47F8544F5E5F430E7FB53F435
:0406FD007FD29522F1
:10081300EF24A0F539C29575F525E5F430E7FB53D0
:10082300F47F8539F5E5F430E7FB53F47FD2952265
:1007010053433FEF600D2440600B2480700A434344
:1007110040800580034343C0C29575F526E5F4305A
:10072100E7FB53F47F8543F5E5F430E7FB53F47FB2
:03073100D295223C
:100423005343C0EF24EC602614601924FC60292494
:10043300EF602024FE601224FC6022240970214313
:100443004327801C434315801743432C80124343A7
:1004530014800D43432A80084343198003434330E8
:10046300C29575F526E5F430E7FB53F47F8543F534
:0B047300E5F430E7FB53F47FD2952244
:0602C0008B4D8A4E894FB0
:1002C600C29575F530E5F430E7FB53F47FE5442439
:1002D600FE602E14605224027073E4FEFFAB4DAA3A
:1002E6004EA94F8F828E83120003F5F5E5F430E7B1
:1002F600FB53F47F0FBF00010EEF64034E70DE80E8
:100306004CE4FEFFAB4DAA4EA94F8F828E8312009E
:1003160003F5F5E5F430E7FB53F47F0FBF00010E5C
:10032600EF64044E70DE8025E4FEFFAB4DAA4EA9B5
:100336004F8F828E83120003F5F5E5F430E7FB5309
:0F034600F47F0FBF00010EEF64054E70DED295FD
:010355002285
:10085100433620C29575F527E5F430E7FB53F47F65
:0E0861008536F5E5F430E7FB53F47FD295229F
:10086F00433610C29575F527E5F430E7FB53F47F57
:0E087F008536F5E5F430E7FB53F47FD2952281
:10073400C29575F53FE5F430E7FB53F47FE4FFFE23
:1007440074282FF8E6F5F5E5F430E7FB53F47F0F52
:0C075400BF00010EEF64054E70E6D29568
:010760002276
:10076100C29575F53EE5F430E7FB53F47FE4FFFEF7
:10077100742E2FF8E6F5F5E5F430E7FB53F47F0F1F
:0C078100BF00010EEF64034E70E6D2953D
:01078D002249
:10078E00C29575F53AE5F430E7FB53F47FE4FFFECE
:10079E00743D2FF8E6F5F5E5F430E7FB53F47F0FE3
:0C07AE00BF00010EEF64064E70E6D2950D
:0107BA00221C
:10090400C29575F539E5F430E7FB53F47F852DF591
:0B091400E5F430E7FB53F47FD295229E
:1007BB00C29575F53BE5F430E7FB53F47FE4FFFEA0
:1007CB00743A2FF8E6F5F5E5F430E7FB53F47F0FB9
:0C07DB00BF00010EEF64034E70E6D295E3
:0107E70022EF
:10091F00C29575F553E5F430E7FB53F47F75F55A3F
:0B092F00E5F430E7FB53F47FD2952283
:10093A00C29575F553E5F430E7FB53F47F75F5A5D9
:0B094A00E5F430E7FB53F47FD2952268
:10088D00753670C29575F527E5F430E7FB53F47FA7
:0E089D008536F5E5F430E7FB53F47FD2952263
:1008AB00E4F537C29575F521E5F430E7FB53F47F9A
:0E08BB008537F5E5F430E7FB53F47FD2952244
:1008C900E4F521C29575F524E5F430E7FB53F47F8F
:0E08D9008521F5E5F430E7FB53F47FD295223C
:1006940053B1BF53B2BF53B17F53B27F7598504328
:1006A4008920438780438E1053C4DFAB07AA06A971
:1006B40005A8047F407E427D0F7C0012006CEF048D
:0906C400F404F58DD28ED29922C6
:100356008F0B8E0A8D098C0853B1BF53B2BF53B1B0
:100366007F53B27F75985043878053C4F843C420A7
:10037600AB0BAA0AA909A8087F407E427D0F7C0024
:1003860012006CC374FF9FFF74FF9EFEE49DFDE4A4
:100396009CFC780812010F8FC6AB0BAA0AA909A804
:1003A600087F407E427D0F7C0012006CC374FF9F65
:0903B600FF8FC543C408D299224F
:07098F003098FDAF99C298FA
:01099600223E
:08099700C2998F993099FD22ED
:1003BF008F0F8E0E8D0D8C0C53B1FB53B2FB53B3BD
:1003CF00BF53B4BF75F85075C40853C4DFAB0FAA41
:1003DF000EA90DA80C7F407E427D0F7C0012006C91
:1003EF00C374FF9FFF74FF9EFEE49DFDE49CFC78A9
:1003FF000812010F8FC6AB0FAA0EA90DA80C7F40D4
:10040F007E427D0F7C0012006CC374FF9FFF8FC56F
:04041F0043C40822A8
:07099F0030F8FDAF9AC2F829
:0109A600222E
:0809A700C2F98F9A30F9FD221C
:1005B3008F138E128D118C10538EF7438901D28CB9
:1005C300E4FFFEFDFCAB13AA12A911A810C312008D
:1005D300FE6025758A7E758CFF308DFDC28DE51317
:1005E30024FFF513E51234FFF512E51134FFF5117D
:0B05F300E51034FFF51080C8C28C2218
:1005FE008F178E168D158C14538EF7438901D28C5E
:10060E00E4FFFEFDFCAB17AA16A915A814C3120031
:10061E00FE6025758ACA758CFA308DFDC28DE51780
:10062E0024FFF517E51634FFF516E51534FFF5151D
:0B063E00E51434FFF51480C8C28C22C4
:100649008F1B8E1A8D198C18538EEF438910D28EF9
:10065900E4FFFEFDFCAB1BAA1AA919A818C31200D6
:10066900FE6025758BEA758DCB308FFDC28FE51B3A
:1006790024FFF51BE51A34FFF51AE51934FFF519BE
:0B068900E51834FFF51880C8C28E226F
:10047E008F1F8E1E8D1D8C1C53C9BF53C9DF43C9E0
:10048E0010D2CAE4FFFEFDFCAB1FAA1EA91DA81CBC
:10049E00C31200FE602575CC3075CDF830CFFDC28D
:1004AE00CFE51F24FFF51FE51E34FFF51EE51D34B5
:0E04BE00FFF51DE51C34FFF51C80C8C2CA22E4
:1004CC008F488E478D468C4575C40743C408E4FF9E
:1004DC00FEFDFCAB48AA47A946A845C31200FE6026
:1004EC002875C52C75C6CFE5C430E4FB53C4EFE5C5
:1004FC004824FFF548E54734FFF547E54634FFF55A
:0D050C0046E54534FFF54580C553C4F72290
:100519008F4C8E4B8D4A8C4975C40343C408E4FF44
:10052900FEFDFCAB4CAA4BA94AA849C31200FE60C8
:100539002875C5EC75C6FFE5C430E4FB53C4EFE587
:100549004C24FFF54CE54B34FFF54BE54A34FFF5F8
:0D0559004AE54934FFF54980C553C4F72237
:100566008F508E4F8D4E8C4D75C40443C408E4FFE6
:10057600FEFDFCAB50AA4FA94EA84DC31200FE606B
:100586002875C51875C6FCE5C430E4FB53C4EFE511
:100596005024FFF550E54F34FFF54FE54E34FFF597
:0D05A6004EE54D34FFF54D80C553C4F722DE
:03000000020214E5
:1002140075C7AA75C75575FD5A75C7AA75C75575AB
:10022400FDA5787FE4F6D8FD9000007FFF7E03E40F
:0C023400F0A3DFFCDEFA75815102027BB2
:10024000020122E493A3F8E493A34003F68001F2B1
:1002500008DFF48029E493A3F85407240CC8C333BF
:10026000C4540F4420C8834004F456800146F6DF8E
:10027000E4800B01020408102040809007E8E47E2F
:10028000019360BCA3FF543F30E509541FFEE49383
:10029000A360010ECF54C025E060A840B8E493A34A
:1002A000FAE493A3F8E493A3C8C582C8CAC583CA75
:1002B000F0A3C8C582C8CAC583CADFE9DEE780BE2D
:0108120000E5
:10000300BB010CE58229F582E5833AF583E02250B2
:1000130006E92582F8E622BBFE06E92582F8E222FC
:0D002300E58229F582E5833AF583E4932216
:1000300075F008758200EF2FFFEE33FECD33CDCC87
:1000400033CCC58233C5829BED9AEC99E58298400A
:100050000CF582EE9BFEED9AFDEC99FC0FD5F0D6E7
:10006000E4CEFBE4CDFAE4CCF9A88222B800C1B911
:100070000059BA002DEC8BF084CFCECDFCE5F0CB4F
:10008000F97818EF2FFFEE33FEED33FDEC33FCEB88
:1000900033FB10D703994004EB99FB0FD8E5E4F943
:1000A000FA227818EF2FFFEE33FEED33FDEC33FC30
:1000B000C933C910D7059BE99A4007EC9BFCE99A24
:1000C000F90FD8E0E4C9FAE4CCFB2275F010EF2F69
:1000D000FFEE33FEED33FDCC33CCC833C810D70769
:1000E0009BEC9AE899400AED9BFDEC9AFCE899F8A4
:0E00F0000FD5F0DAE4CDFBE4CCFAE4C8F92237
:1000FE00EB9FF5F0EA9E42F0E99D42F0E89C45F058
:01010E0022CE
:10010F00E8600FECC313FCED13FDEE13FEEF13FFCE
:03011F00D8F122F2
:00000001FF
