:10015D00E4F5B1F5B2F5B3F5B4F5ACF5AD75270829
:10016D0075430375384E75423F75360E75370175FB
:10017D00210343F31043F30143F30243F40853F314
:10018D007F53F3DF53F3F753F3FB53F47F43F34004
:10019D00C2917F0AFEFDFC12058C12090F12092A6D
:1001AD0012095F12084312087F7F011200037B00C2
:1001BD007A0079221202E67F011209457F927E09AB
:1001CD00120805E4FF1206F37F151204491208F414
:1001DD001207801207AD1207531207261208257F4A
:1001ED00147E007D007C0012058CD2917F0A7E006A
:1001FD007D007C0012058C7F807E257D007C0012A9
:10020D0006BA43E90143E91043EA0453EBFBE4F575
:10021D00EC439B02D2AF3000FDC2001208BB8F51E0
:0D022D0012095F120843AF5112098680E9E3
:03003B0002096F48
:0F096F00C0E0E5EC30E20553ECFBD200D0E03203
:1007DA000531010203040505220102030405052867
:1007EA0012ED679C46032EF63F5D063C4521EF2C31
:0A07FA005A40012D0103390BDF0204
:1008D800C2968FF5E5F430E7FB53F47F75F555E5DF
:0B08E800F430E7FB53F47FAFF5D2962D
:0108F30022E2
:1008BB00C29675F561E5F430E7FB53F47F75F5559A
:0C08CB00E5F430E7FB53F47FAFF5D29664
:0108D70022FE
:10095F00C29675F5E2E5F430E7FB53F47FD29622A9
:100825007527B3C29675F520E5F430E7FB53F47FE1
:0E0835008527F5E5F430E7FB53F47FD29622D9
:10000300EF24FE600C14600E2402700D7543018012
:10001300087543028003754303C29675F523E5F41F
:1000230030E7FB53F47F8543F5E5F430E7FB53F406
:040033007FD29622C0
:10080500EF24A0F538C29675F525E5F430E7FB53DE
:10081500F47F8538F5E5F430E7FB53F47FD2962273
:1006F30053423FEF600D2440600B2480700A434255
:1007030040800580034342C0C29675F526E5F43068
:10071300E7FB53F47F8542F5E5F430E7FB53F47FC1
:03072300D2962249
:100449005342C0EF24EC602614601924FC6029246F
:10045900EF602024FE601224FC60222409702143ED
:100469004227801C434215801743422C8012434285
:1004790014800D43422A80084342198003434230C5
:10048900C29675F526E5F430E7FB53F47F8542F50E
:0B049900E5F430E7FB53F47FD296221D
:0602E6008B4C8A4D894E8D
:1002EC00C29675F52AE5F430E7FB53F47FE5432419
:1002FC00FE602E14605224027073E4FEFFAB4CAA15
:10030C004DA94E8F828E8312003EF5F5E5F430E751
:10031C00FB53F47F0FBF00010EEF64034E70DE80C1
:10032C004CE4FEFFAB4CAA4DA94E8F828E8312007B
:10033C003EF5F5E5F430E7FB53F47F0FBF00010EFB
:10034C00EF64044E70DE8025E4FEFFAB4CAA4DA991
:10035C004E8F828E8312003EF5F5E5F430E7FB53A9
:0F036C00F47F0FBF00010EEF64054E70DED296D6
:01037B00225F
:10094500C29675F531E5F430E7FB53F47F8FF5E595
:0A095500F430E7FB53F47FD2962242
:10072600C29675F53FE5F430E7FB53F47FE4FFFE30
:1007360074282FF8E6F5F5E5F430E7FB53F47F0F60
:0C074600BF00010EEF64054E70E6D29675
:010752002284
:10075300C29675F53EE5F430E7FB53F47FE4FFFE04
:10076300742E2FF8E6F5F5E5F430E7FB53F47F0F2D
:0C077300BF00010EEF64034E70E6D2964A
:01077F002257
:10078000C29675F53AE5F430E7FB53F47FE4FFFEDB
:10079000743C2FF8E6F5F5E5F430E7FB53F47F0FF2
:0C07A000BF00010EEF64064E70E6D2961A
:0107AC00222A
:1008F400C29675F539E5F430E7FB53F47F852DF5A1
:0B090400E5F430E7FB53F47FD29622AD
:1007AD00C29675F53BE5F430E7FB53F47FE4FFFEAD
:1007BD0074392FF8E6F5F5E5F430E7FB53F47F0FC8
:0C07CD00BF00010EEF64034E70E6D296F0
:0107D90022FD
:10090F00C29675F553E5F430E7FB53F47F75F55A4E
:0B091F00E5F430E7FB53F47FD2962292
:10092A00C29675F553E5F430E7FB53F47F75F5A5E8
:0B093A00E5F430E7FB53F47FD2962277
:10084300753670C29675F527E5F430E7FB53F47FF0
:0E0853008536F5E5F430E7FB53F47FD29622AC
:10086100433640C29675F527E5F430E7FB53F47F34
:0E0871008536F5E5F430E7FB53F47FD296228E
:10087F00E4F537C29675F521E5F430E7FB53F47FC5
:0E088F008537F5E5F430E7FB53F47FD296226F
:10089D00E4F521C29675F524E5F430E7FB53F47FBA
:0E08AD008521F5E5F430E7FB53F47FD2962267
:1006BA0053B1BF53B2BF53B17F53B27F7598504302
:1006CA008920438780438E1053C4DFAB07AA06A94B
:1006DA0005A8047F407E427D0F7C001200A7EF042C
:0906EA00F404F58DD28ED29922A0
:10037C008F0B8E0A8D098C0853B1BF53B2BF53B18A
:10038C007F53B27F75985043878053C4F843C42081
:10039C00AB0BAA0AA909A8087F407E427D0F7C00FE
:1003AC001200A7C374FF9FFF74FF9EFEE49DFDE443
:1003BC009CFC780812014A8FC6AB0BAA0AA909A8A3
:1003CC00087F407E427D0F7C001200A7C374FF9F04
:0903DC00FF8FC543C408D2992229
:07097E003098FDAF99C2980B
:01098500224F
:08098600C2998F993099FD22FE
:1003E5008F0F8E0E8D0D8C0C53B1FB53B2FB53B397
:1003F500BF53B4BF75F85075C40853C4DFAB0FAA1B
:100405000EA90DA80C7F407E427D0F7C001200A72F
:10041500C374FF9FFF74FF9EFEE49DFDE49CFC7882
:100425000812014A8FC6AB0FAA0EA90DA80C7F4072
:100435007E427D0F7C001200A7C374FF9FFF8FC50E
:0404450043C4082282
:07098E0030F8FDAF9AC2F83A
:01099500223F
:08099600C2F98F9A30F9FD222D
:1005D9008F138E128D118C10538EF7438901D28C93
:1005E900E4FFFEFDFCAB13AA12A911A810C3120166
:1005F900396025758A7E758CFF308DFDC28DE513B6
:1006090024FFF513E51234FFF512E51134FFF51156
:0B061900E51034FFF51080C8C28C22F1
:100624008F178E168D158C14538EF7438901D28C37
:10063400E4FFFEFDFCAB17AA16A915A814C312010A
:10064400396025758ACA758CFA308DFDC28DE5171F
:1006540024FFF517E51634FFF516E51534FFF515F7
:0B066400E51434FFF51480C8C28C229E
:10066F008F1B8E1A8D198C18538EEF438910D28ED3
:10067F00E4FFFEFDFCAB1BAA1AA919A818C31201AF
:10068F00396025758BEA758DCB308FFDC28FE51BD9
:10069F0024FFF51BE51A34FFF51AE51934FFF51998
:0B06AF00E51834FFF51880C8C28E2249
:1004A4008F1F8E1E8D1D8C1C53C9BF53C9DF43C9BA
:1004B40010D2CAE4FFFEFDFCAB1FAA1EA91DA81C96
:1004C400C3120139602575CC3075CDF830CFFDC22B
:1004D400CFE51F24FFF51FE51E34FFF51EE51D348F
:0E04E400FFF51DE51C34FFF51C80C8C2CA22BE
:1004F2008F478E468D458C4475C40743C408E4FF7C
:10050200FEFDFCAB47AA46A945A844C312013960C7
:100512002875C52C75C6CFE5C430E4FB53C4EFE59E
:100522004724FFF547E54634FFF546E54534FFF538
:0D05320045E54434FFF54480C553C4F7226D
:10053F008F4B8E4A8D498C4875C40343C408E4FF22
:10054F00FEFDFCAB4BAA4AA949A848C3120139606A
:10055F002875C5EC75C6FFE5C430E4FB53C4EFE561
:10056F004B24FFF54BE54A34FFF54AE54934FFF5D7
:0D057F0049E54834FFF54880C553C4F72214
:10058C008F4F8E4E8D4D8C4C75C40443C408E4FFC4
:10059C00FEFDFCAB4FAA4EA94DA84CC3120139600D
:1005AC002875C51875C6FCE5C430E4FB53C4EFE5EB
:1005BC004F24FFF54FE54E34FFF54EE54D34FFF576
:0D05CC004DE54C34FFF54C80C553C4F722BB
:0300000002023ABF
:10023A0075C7AA75C75575FD5A75C7AA75C7557585
:10024A00FDA5787FE4F6D8FD9000007FFF7E03E4E9
:0C025A00F0A3DFFCDEFA7581510202A166
:1002660002015DE493A3F8E493A34003F68001F250
:1002760008DFF48029E493A3F85407240CC8C33399
:10028600C4540F4420C8834004F456800146F6DF68
:10029600E4800B01020408102040809007DAE47E17
:1002A600019360BCA3FF543F30E509541FFEE4935D
:1002B600A360010ECF54C025E060A840B8E493A324
:1002C600FAE493A3F8E493A3C8C582C8CAC583CA4F
:1002D600F0A3C8C582C8CAC583CADFE9DEE780BE07
:0108040000F3
:10003E00BB010CE58229F582E5833AF583E0225077
:10004E0006E92582F8E622BBFE06E92582F8E222C1
:0D005E00E58229F582E5833AF583E49322DB
:10006B0075F008758200EF2FFFEE33FECD33CDCC4C
:10007B0033CCC58233C5829BED9AEC99E5829840CF
:10008B000CF582EE9BFEED9AFDEC99FC0FD5F0D6AC
:10009B00E4CEFBE4CDFAE4CCF9A88222B800C1B9D6
:1000AB000059BA002DEC8BF084CFCECDFCE5F0CB14
:1000BB00F97818EF2FFFEE33FEED33FDEC33FCEB4D
:1000CB0033FB10D703994004EB99FB0FD8E5E4F908
:1000DB00FA227818EF2FFFEE33FEED33FDEC33FCF5
:1000EB00C933C910D7059BE99A4007EC9BFCE99AE9
:1000FB00F90FD8E0E4C9FAE4CCFB2275F010EF2F2E
:10010B00FFEE33FEED33FDCC33CCC833C810D7072D
:10011B009BEC9AE899400AED9BFDEC9AFCE899F868
:0E012B000FD5F0DAE4CDFBE4CCFAE4C8F922FB
:10013900EB9FF5F0EA9E42F0E99D42F0E89C45F01C
:010149002293
:10014A00E8600FECC313FCED13FDEE13FEEF13FF93
:03015A00D8F122B7
:00000001FF
