S01A000045516475696E6F5F454D31335F30315F56312E737265635A
S11300002AC039C038C037C036C035C034C094C1E6
S113001032C031C030C02FC02EC02DC02CC02BC068
S11300202AC029C028C027C026C025C024C023C098
S113003022C021C00DC117C121C12BC16BC16AC12E
S113004069C13DC167C15CC145C164C163C14DC1E2
S113005061C160C129C111241FBECFEFD2E0DEBF50
S1130060CDBF21E0A0E0B1E001C01D92A631B207EE
S1130070E1F7BCD08BC2C4CF4AB13BB13F71406EF3
S113008095B19E7F24B1296087B158B14B7E4AB99E
S113009034613BB9897F2D7C24B99A6395B9952F36
S11300A09E6098B9886087B90895E82FE695E6952B
S11300B0E695F0E09F01220F331FE20FF31FB09685
S11300C04281877021E030E0D90102C0AA0FBB1F32
S11300D08A95E2F7CD01842B8283E62FE695E69597
S11300E0E695F0E0CF01880F991FE80FF91FB0964D
S11300F08281677002C0220F331F6A95E2F7209550
S1130100282322830895E82FE695E695E695F0E006
S11301109F01220F331FE20FF31FB0969281877065
S113012021E030E0A90102C0440F551F8A95E2F78F
S1130130842F809589238283E62FE695E695E695BC
S1130140F0E0CF01880F991FE80FF91FB096828164
S1130150677002C0220F331F6A95E2F7282B2283AF
S11301600895E82FE695E695E695F0E09F01220FC5
S1130170331FE20FF31FB0969281877021E030E0C5
S1130180A90102C0440F551F8A95E2F7842F809578
S113019089238283E62FE695E695E695F0E0CF0184
S11301A0880F991FE80FF91FB0968281677002C00B
S11301B0220F331F6A95E2F720952823228308959E
S11301C0F89482E08093B0008093B10092E390931E
S11301D0B3001092B20080937000E0E0F1E010826E
S11301E011821282138217827894089545DFE8DF22
S11301F010920B0110920901C1E080910F01882334
S113020009F488C010920F018091140180931501A4
S1130210C093100110920D0110920C0110920E0166
S1130220E82FEF71E0931201829586958770809391
S113023013019091110189136DC08E2F90E0FC0180
S11302403C97E131F10508F065C0E65EFF4F099483
S11302506EE170E08DE190E028DF68E070E08FE10E
S113026090E07FDF57C06EE170E08DE190E079DFD0
S113027068E070E08FE190E018DF4CC06EE170E060
S11302808DE190E040DF68E070E08FE190E069DFAD
S113029041C06EE170E08DE190E063DF68E070E002
S11302A08FE190E030DF36C06EE170E08DE190E0E8
S11302B0FCDE68E070E08FE190E0F7DE2BC06EE1D9
S11302C070E08DE190E01FDF68E070E08FE190E086
S11302D01ADF20C06EE170E08DE190E0E6DE68E0B8
S11302E070E08FE190E00FDF15C06EE170E08DE10A
S11302F090E009DF68E070E08FE190E0D6DE0AC0AC
S11303006EE170E08DE190E02CDF68E070E08FE159
S113031090E027DF80910E01882309F46ECF1092BC
S11303200E016EE170E08DE190E01BDF68E070E0AB
S11303308FE190E016DF61CF1F920F920FB60F92FC
S113034011242F938F939F93EF93FF938091000138
S1130350811131C04A9914C0E0E0F1E01182828138
S11303608F5F82838B3021F481E080930301BEC0D0
S11303708E3009F0BBC0E0E0F1E013821282B6C017
S1130380E0E0F1E0128281818F5F81838B3069F438
S113039080910301882309F4A9C0138281E080833A
S11303A01182168215821086A1C08E3009F09EC07B
S11303B0109201019BC0813009F048C04A9B22C0C1
S11303C0E0E0F1E0128281818F5F873019F0809341
S11303D001018CC0E0E0F1E0118285818F77858393
S11303E086818F5F86832B982B9A883029F482E04C
S11303F08083148217827AC0E0E0F1E085818695DB
S1130400858374C0E0E0F1E0118282818F5F8830DF
S113041019F0809302016AC0E0E0F1E01282858164
S11304208068858386818F5F86832B982B9A88309A
S113043039F482E080831482178281E0808756C079
S1130440E0E0F1E085818695858350C0823009F033
S11304504DC04A9B25C08091020181508A3068F4C6
S113046080910801813029F4E0E0F1E010861282E5
S113047004C0E0E0F1E010821282E0E0F1E081816A
S11304808F5F81838B3021F481E0809304012EC03F
S1130490843161F5E0E0F1E014821182108226C01B
S11304A08091010181508A3020F4E0E0F1E0108273
S11304B01182E0E0F1E082818F5F82838B3081F4EE
S11304C080910401882391F0148281E087838093D2
S11304D00F0185818093140110821282118206C05B
S11304E08E3021F4E0E0F1E0128210828091090163
S11304F08F5F843119F0809309013EC01092090185
S113050010920A01319903C084E080930A011D9975
S113051005C080910A01826080930A011C9905C07C
S113052080910A01816080930A0180911101909168
S11305300A01891751F080910B018F5F80930B01A1
S1130540843629F49093110102C010920B0180911A
S11305501001882389F080910C0190910D0101967E
S113056090930D0180930C01883E934029F41092DE
S1130570100181E080930E01FF91EF919F918F9183
S11305802F910F900FBE0F901F901895F894FFCFE6
S9030000FC
